{
  "address": "0x9A7fb57AEdCB8FEbd867483825d96d1c2e11b68d",
  "abi": [
    {
      "inputs": [],
      "stateMutability": "nonpayable",
      "type": "constructor"
    },
    {
      "anonymous": false,
      "inputs": [
        {
          "indexed": true,
          "internalType": "address",
          "name": "owner",
          "type": "address"
        },
        {
          "indexed": true,
          "internalType": "address",
          "name": "approved",
          "type": "address"
        },
        {
          "indexed": true,
          "internalType": "uint256",
          "name": "tokenId",
          "type": "uint256"
        }
      ],
      "name": "Approval",
      "type": "event"
    },
    {
      "anonymous": false,
      "inputs": [
        {
          "indexed": true,
          "internalType": "address",
          "name": "owner",
          "type": "address"
        },
        {
          "indexed": true,
          "internalType": "address",
          "name": "operator",
          "type": "address"
        },
        {
          "indexed": false,
          "internalType": "bool",
          "name": "approved",
          "type": "bool"
        }
      ],
      "name": "ApprovalForAll",
      "type": "event"
    },
    {
      "anonymous": false,
      "inputs": [
        {
          "indexed": true,
          "internalType": "address",
          "name": "from",
          "type": "address"
        },
        {
          "indexed": true,
          "internalType": "address",
          "name": "to",
          "type": "address"
        },
        {
          "indexed": true,
          "internalType": "uint256",
          "name": "tokenId",
          "type": "uint256"
        }
      ],
      "name": "Transfer",
      "type": "event"
    },
    {
      "inputs": [
        {
          "internalType": "address",
          "name": "to",
          "type": "address"
        },
        {
          "internalType": "uint256",
          "name": "tokenId",
          "type": "uint256"
        }
      ],
      "name": "approve",
      "outputs": [],
      "stateMutability": "nonpayable",
      "type": "function"
    },
    {
      "inputs": [
        {
          "internalType": "address",
          "name": "owner",
          "type": "address"
        }
      ],
      "name": "balanceOf",
      "outputs": [
        {
          "internalType": "uint256",
          "name": "",
          "type": "uint256"
        }
      ],
      "stateMutability": "view",
      "type": "function"
    },
    {
      "inputs": [
        {
          "internalType": "uint256",
          "name": "tokenId",
          "type": "uint256"
        }
      ],
      "name": "getApproved",
      "outputs": [
        {
          "internalType": "address",
          "name": "",
          "type": "address"
        }
      ],
      "stateMutability": "view",
      "type": "function"
    },
    {
      "inputs": [
        {
          "internalType": "address",
          "name": "owner",
          "type": "address"
        },
        {
          "internalType": "address",
          "name": "operator",
          "type": "address"
        }
      ],
      "name": "isApprovedForAll",
      "outputs": [
        {
          "internalType": "bool",
          "name": "",
          "type": "bool"
        }
      ],
      "stateMutability": "view",
      "type": "function"
    },
    {
      "inputs": [],
      "name": "name",
      "outputs": [
        {
          "internalType": "string",
          "name": "",
          "type": "string"
        }
      ],
      "stateMutability": "view",
      "type": "function"
    },
    {
      "inputs": [
        {
          "internalType": "uint256",
          "name": "tokenId",
          "type": "uint256"
        }
      ],
      "name": "ownerOf",
      "outputs": [
        {
          "internalType": "address",
          "name": "",
          "type": "address"
        }
      ],
      "stateMutability": "view",
      "type": "function"
    },
    {
      "inputs": [],
      "name": "s_tokenCounter",
      "outputs": [
        {
          "internalType": "uint256",
          "name": "",
          "type": "uint256"
        }
      ],
      "stateMutability": "view",
      "type": "function"
    },
    {
      "inputs": [
        {
          "internalType": "address",
          "name": "from",
          "type": "address"
        },
        {
          "internalType": "address",
          "name": "to",
          "type": "address"
        },
        {
          "internalType": "uint256",
          "name": "tokenId",
          "type": "uint256"
        }
      ],
      "name": "safeTransferFrom",
      "outputs": [],
      "stateMutability": "nonpayable",
      "type": "function"
    },
    {
      "inputs": [
        {
          "internalType": "address",
          "name": "from",
          "type": "address"
        },
        {
          "internalType": "address",
          "name": "to",
          "type": "address"
        },
        {
          "internalType": "uint256",
          "name": "tokenId",
          "type": "uint256"
        },
        {
          "internalType": "bytes",
          "name": "data",
          "type": "bytes"
        }
      ],
      "name": "safeTransferFrom",
      "outputs": [],
      "stateMutability": "nonpayable",
      "type": "function"
    },
    {
      "inputs": [
        {
          "internalType": "address",
          "name": "operator",
          "type": "address"
        },
        {
          "internalType": "bool",
          "name": "approved",
          "type": "bool"
        }
      ],
      "name": "setApprovalForAll",
      "outputs": [],
      "stateMutability": "nonpayable",
      "type": "function"
    },
    {
      "inputs": [
        {
          "internalType": "bytes4",
          "name": "interfaceId",
          "type": "bytes4"
        }
      ],
      "name": "supportsInterface",
      "outputs": [
        {
          "internalType": "bool",
          "name": "",
          "type": "bool"
        }
      ],
      "stateMutability": "view",
      "type": "function"
    },
    {
      "inputs": [],
      "name": "svgToImageURI",
      "outputs": [
        {
          "internalType": "string",
          "name": "",
          "type": "string"
        }
      ],
      "stateMutability": "pure",
      "type": "function"
    },
    {
      "inputs": [],
      "name": "symbol",
      "outputs": [
        {
          "internalType": "string",
          "name": "",
          "type": "string"
        }
      ],
      "stateMutability": "view",
      "type": "function"
    },
    {
      "inputs": [
        {
          "internalType": "uint256",
          "name": "",
          "type": "uint256"
        }
      ],
      "name": "tokenURI",
      "outputs": [
        {
          "internalType": "string",
          "name": "",
          "type": "string"
        }
      ],
      "stateMutability": "view",
      "type": "function"
    },
    {
      "inputs": [
        {
          "internalType": "address",
          "name": "from",
          "type": "address"
        },
        {
          "internalType": "address",
          "name": "to",
          "type": "address"
        },
        {
          "internalType": "uint256",
          "name": "tokenId",
          "type": "uint256"
        }
      ],
      "name": "transferFrom",
      "outputs": [],
      "stateMutability": "nonpayable",
      "type": "function"
    }
  ],
  "transactionHash": "0x7fbefb1b9026602675292e183d174575093cfedf6f2cbcd23da6d3f565d004d5",
  "args": [],
  "numDeployments": 2,
  "solcInputHash": "959fc25b486f9ba630018dc964d3963f",
  "bytecode": "0x60806040523480156200001157600080fd5b506040518060400160405280600f81526020017f556e73746f707061626c6546726f6700000000000000000000000000000000008152506040518060400160405280600281526020017f55460000000000000000000000000000000000000000000000000000000000008152508160009080519060200190620000969291906200083d565b508060019080519060200190620000af9291906200083d565b505050620000c26200010a60201b60201c565b60069080519060200190620000d99291906200083d565b50620000ed336000620001c660201b60201c565b6001600754620000fe919062000b83565b60078190555062000edc565b606060006040518060400160405280601a81526020017f646174613a696d6167652f7376672b786d6c3b6261736536342c000000000000815250905060006200019960405180610120016040528060e48152602001620035a560e4913960405160200162000179919062000a45565b604051602081830303815290604052620001ec60201b62000a8b1760201c565b90508181604051602001620001b092919062000a5e565b6040516020818303038152906040529250505090565b620001e88282604051806020016040528060008152506200037a60201b60201c565b5050565b6060600082511415620002115760405180602001604052806000815250905062000375565b600060405180606001604052806040815260200162003565604091399050600060036002855162000243919062000b83565b6200024f919062000be0565b60046200025d919062000c18565b9050600060208262000270919062000b83565b67ffffffffffffffff8111156200028c576200028b62000ddc565b5b6040519080825280601f01601f191660200182016040528015620002bf5781602001600182028036833780820191505090505b509050818152600183018586518101602084015b8183101562000330576003830192508251603f8160121c168501518253600182019150603f81600c1c168501518253600182019150603f8160061c168501518253600182019150603f8116850151825360018201915050620002d3565b6003895106600181146200034d57600281146200035e5762000369565b613d3d60f01b600283035262000369565b603d60f81b60018303525b50505050508093505050505b919050565b6200038c8383620003e860201b60201c565b620003a16000848484620005e260201b60201c565b620003e3576040517f08c379a0000000000000000000000000000000000000000000000000000000008152600401620003da9062000ada565b60405180910390fd5b505050565b600073ffffffffffffffffffffffffffffffffffffffff168273ffffffffffffffffffffffffffffffffffffffff1614156200045b576040517f08c379a0000000000000000000000000000000000000000000000000000000008152600401620004529062000b1e565b60405180910390fd5b6200046c816200079c60201b60201c565b15620004af576040517f08c379a0000000000000000000000000000000000000000000000000000000008152600401620004a69062000afc565b60405180910390fd5b620004c3600083836200080860201b60201c565b6001600360008473ffffffffffffffffffffffffffffffffffffffff1673ffffffffffffffffffffffffffffffffffffffff168152602001908152602001600020600082825462000515919062000b83565b92505081905550816002600083815260200190815260200160002060006101000a81548173ffffffffffffffffffffffffffffffffffffffff021916908373ffffffffffffffffffffffffffffffffffffffff160217905550808273ffffffffffffffffffffffffffffffffffffffff16600073ffffffffffffffffffffffffffffffffffffffff167fddf252ad1be2c89b69c2b068fc378daa952ba7f163c4a11628f55a4df523b3ef60405160405180910390a4620005de600083836200080d60201b60201c565b5050565b6000620006108473ffffffffffffffffffffffffffffffffffffffff166200081260201b62000c041760201c565b156200078f578373ffffffffffffffffffffffffffffffffffffffff1663150b7a02620006426200083560201b60201c565b8786866040518563ffffffff1660e01b815260040162000666949392919062000a86565b602060405180830381600087803b1580156200068157600080fd5b505af1925050508015620006b557506040513d601f19601f82011682018060405250810190620006b2919062000904565b60015b6200073e573d8060008114620006e8576040519150601f19603f3d011682016040523d82523d6000602084013e620006ed565b606091505b5060008151141562000736576040517f08c379a00000000000000000000000000000000000000000000000000000000081526004016200072d9062000ada565b60405180910390fd5b805181602001fd5b63150b7a0260e01b7bffffffffffffffffffffffffffffffffffffffffffffffffffffffff1916817bffffffffffffffffffffffffffffffffffffffffffffffffffffffff19161491505062000794565b600190505b949350505050565b60008073ffffffffffffffffffffffffffffffffffffffff166002600084815260200190815260200160002060009054906101000a900473ffffffffffffffffffffffffffffffffffffffff1673ffffffffffffffffffffffffffffffffffffffff1614159050919050565b505050565b505050565b6000808273ffffffffffffffffffffffffffffffffffffffff163b119050919050565b600033905090565b8280546200084b9062000d19565b90600052602060002090601f0160209004810192826200086f5760008555620008bb565b82601f106200088a57805160ff1916838001178555620008bb565b82800160010185558215620008bb579182015b82811115620008ba5782518255916020019190600101906200089d565b5b509050620008ca9190620008ce565b5090565b5b80821115620008e9576000816000905550600101620008cf565b5090565b600081519050620008fe8162000ec2565b92915050565b6000602082840312156200091d576200091c62000e0b565b5b60006200092d84828501620008ed565b91505092915050565b620009418162000c79565b82525050565b6000620009548262000b40565b62000960818562000b56565b93506200097281856020860162000ce3565b6200097d8162000e10565b840191505092915050565b6000620009958262000b4b565b620009a1818562000b78565b9350620009b381856020860162000ce3565b80840191505092915050565b6000620009ce60328362000b67565b9150620009db8262000e21565b604082019050919050565b6000620009f5601c8362000b67565b915062000a028262000e70565b602082019050919050565b600062000a1c60208362000b67565b915062000a298262000e99565b602082019050919050565b62000a3f8162000cd9565b82525050565b600062000a53828462000988565b915081905092915050565b600062000a6c828562000988565b915062000a7a828462000988565b91508190509392505050565b600060808201905062000a9d600083018762000936565b62000aac602083018662000936565b62000abb604083018562000a34565b818103606083015262000acf818462000947565b905095945050505050565b6000602082019050818103600083015262000af581620009bf565b9050919050565b6000602082019050818103600083015262000b1781620009e6565b9050919050565b6000602082019050818103600083015262000b398162000a0d565b9050919050565b600081519050919050565b600081519050919050565b600082825260208201905092915050565b600082825260208201905092915050565b600081905092915050565b600062000b908262000cd9565b915062000b9d8362000cd9565b9250827fffffffffffffffffffffffffffffffffffffffffffffffffffffffffffffffff0382111562000bd55762000bd462000d4f565b5b828201905092915050565b600062000bed8262000cd9565b915062000bfa8362000cd9565b92508262000c0d5762000c0c62000d7e565b5b828204905092915050565b600062000c258262000cd9565b915062000c328362000cd9565b9250817fffffffffffffffffffffffffffffffffffffffffffffffffffffffffffffffff048311821515161562000c6e5762000c6d62000d4f565b5b828202905092915050565b600062000c868262000cb9565b9050919050565b60007fffffffff0000000000000000000000000000000000000000000000000000000082169050919050565b600073ffffffffffffffffffffffffffffffffffffffff82169050919050565b6000819050919050565b60005b8381101562000d0357808201518184015260208101905062000ce6565b8381111562000d13576000848401525b50505050565b6000600282049050600182168062000d3257607f821691505b6020821081141562000d495762000d4862000dad565b5b50919050565b7f4e487b7100000000000000000000000000000000000000000000000000000000600052601160045260246000fd5b7f4e487b7100000000000000000000000000000000000000000000000000000000600052601260045260246000fd5b7f4e487b7100000000000000000000000000000000000000000000000000000000600052602260045260246000fd5b7f4e487b7100000000000000000000000000000000000000000000000000000000600052604160045260246000fd5b600080fd5b6000601f19601f8301169050919050565b7f4552433732313a207472616e7366657220746f206e6f6e20455243373231526560008201527f63656976657220696d706c656d656e7465720000000000000000000000000000602082015250565b7f4552433732313a20746f6b656e20616c7265616479206d696e74656400000000600082015250565b7f4552433732313a206d696e7420746f20746865207a65726f2061646472657373600082015250565b62000ecd8162000c8d565b811462000ed957600080fd5b50565b6126798062000eec6000396000f3fe608060405234801561001057600080fd5b50600436106100f55760003560e01c80636352211e11610097578063a22cb46511610066578063a22cb46514610286578063b88d4fde146102a2578063c87b56dd146102be578063e985e9c5146102ee576100f5565b80636352211e146101ea57806370a082311461021a578063946aa6351461024a57806395d89b4114610268576100f5565b8063095ea7b3116100d3578063095ea7b3146101785780630b21a83b1461019457806323b872dd146101b257806342842e0e146101ce576100f5565b806301ffc9a7146100fa57806306fdde031461012a578063081812fc14610148575b600080fd5b610114600480360381019061010f9190611748565b61031e565b6040516101219190611bd7565b60405180910390f35b610132610400565b60405161013f9190611bf2565b60405180910390f35b610162600480360381019061015d91906117a2565b610492565b60405161016f9190611b70565b60405180910390f35b610192600480360381019061018d9190611708565b6104d8565b005b61019c6105f0565b6040516101a99190611d34565b60405180910390f35b6101cc60048036038101906101c791906115f2565b6105f6565b005b6101e860048036038101906101e391906115f2565b610656565b005b61020460048036038101906101ff91906117a2565b610676565b6040516102119190611b70565b60405180910390f35b610234600480360381019061022f9190611585565b610728565b6040516102419190611d34565b60405180910390f35b6102526107e0565b60405161025f9190611bf2565b60405180910390f35b61027061088a565b60405161027d9190611bf2565b60405180910390f35b6102a0600480360381019061029b91906116c8565b61091c565b005b6102bc60048036038101906102b79190611645565b610932565b005b6102d860048036038101906102d391906117a2565b610994565b6040516102e59190611bf2565b60405180910390f35b610308600480360381019061030391906115b2565b6109f7565b6040516103159190611bd7565b60405180910390f35b60007f80ac58cd000000000000000000000000000000000000000000000000000000007bffffffffffffffffffffffffffffffffffffffffffffffffffffffff1916827bffffffffffffffffffffffffffffffffffffffffffffffffffffffff191614806103e957507f5b5e139f000000000000000000000000000000000000000000000000000000007bffffffffffffffffffffffffffffffffffffffffffffffffffffffff1916827bffffffffffffffffffffffffffffffffffffffffffffffffffffffff1916145b806103f957506103f882610c27565b5b9050919050565b60606000805461040f90611fc8565b80601f016020809104026020016040519081016040528092919081815260200182805461043b90611fc8565b80156104885780601f1061045d57610100808354040283529160200191610488565b820191906000526020600020905b81548152906001019060200180831161046b57829003601f168201915b5050505050905090565b600061049d82610c91565b6004600083815260200190815260200160002060009054906101000a900473ffffffffffffffffffffffffffffffffffffffff169050919050565b60006104e382610676565b90508073ffffffffffffffffffffffffffffffffffffffff168373ffffffffffffffffffffffffffffffffffffffff161415610554576040517f08c379a000000000000000000000000000000000000000000000000000000000815260040161054b90611cf4565b60405180910390fd5b8073ffffffffffffffffffffffffffffffffffffffff16610573610cdc565b73ffffffffffffffffffffffffffffffffffffffff1614806105a257506105a18161059c610cdc565b6109f7565b5b6105e1576040517f08c379a00000000000000000000000000000000000000000000000000000000081526004016105d890611cb4565b60405180910390fd5b6105eb8383610ce4565b505050565b60075481565b610607610601610cdc565b82610d9d565b610646576040517f08c379a000000000000000000000000000000000000000000000000000000000815260040161063d90611d14565b60405180910390fd5b610651838383610e32565b505050565b61067183838360405180602001604052806000815250610932565b505050565b6000806002600084815260200190815260200160002060009054906101000a900473ffffffffffffffffffffffffffffffffffffffff169050600073ffffffffffffffffffffffffffffffffffffffff168173ffffffffffffffffffffffffffffffffffffffff16141561071f576040517f08c379a000000000000000000000000000000000000000000000000000000000815260040161071690611cd4565b60405180910390fd5b80915050919050565b60008073ffffffffffffffffffffffffffffffffffffffff168273ffffffffffffffffffffffffffffffffffffffff161415610799576040517f08c379a000000000000000000000000000000000000000000000000000000000815260040161079090611c94565b60405180910390fd5b600360008373ffffffffffffffffffffffffffffffffffffffff1673ffffffffffffffffffffffffffffffffffffffff168152602001908152602001600020549050919050565b606060006040518060400160405280601a81526020017f646174613a696d6167652f7376672b786d6c3b6261736536342c0000000000008152509050600061085f60405180610120016040528060e4815260200161256060e4913960405160200161084b9190611ae5565b604051602081830303815290604052610a8b565b90508181604051602001610874929190611afc565b6040516020818303038152906040529250505090565b60606001805461089990611fc8565b80601f01602080910402602001604051908101604052809291908181526020018280546108c590611fc8565b80156109125780601f106108e757610100808354040283529160200191610912565b820191906000526020600020905b8154815290600101906020018083116108f557829003601f168201915b5050505050905090565b61092e610927610cdc565b8383611099565b5050565b61094361093d610cdc565b83610d9d565b610982576040517f08c379a000000000000000000000000000000000000000000000000000000000815260040161097990611d14565b60405180910390fd5b61098e84848484611206565b50505050565b606061099e611262565b6109d06109a9610400565b60066040516020016109bc929190611b20565b604051602081830303815290604052610a8b565b6040516020016109e1929190611afc565b6040516020818303038152906040529050919050565b6000600560008473ffffffffffffffffffffffffffffffffffffffff1673ffffffffffffffffffffffffffffffffffffffff16815260200190815260200160002060008373ffffffffffffffffffffffffffffffffffffffff1673ffffffffffffffffffffffffffffffffffffffff16815260200190815260200160002060009054906101000a900460ff16905092915050565b6060600082511415610aae57604051806020016040528060008152509050610bff565b60006040518060600160405280604081526020016125206040913990506000600360028551610add9190611dfd565b610ae79190611e53565b6004610af39190611e84565b90506000602082610b049190611dfd565b67ffffffffffffffff811115610b1d57610b1c6120b8565b5b6040519080825280601f01601f191660200182016040528015610b4f5781602001600182028036833780820191505090505b509050818152600183018586518101602084015b81831015610bbe576003830192508251603f8160121c168501518253600182019150603f81600c1c168501518253600182019150603f8160061c168501518253600182019150603f8116850151825360018201915050610b63565b600389510660018114610bd85760028114610be857610bf3565b613d3d60f01b6002830352610bf3565b603d60f81b60018303525b50505050508093505050505b919050565b6000808273ffffffffffffffffffffffffffffffffffffffff163b119050919050565b60007f01ffc9a7000000000000000000000000000000000000000000000000000000007bffffffffffffffffffffffffffffffffffffffffffffffffffffffff1916827bffffffffffffffffffffffffffffffffffffffffffffffffffffffff1916149050919050565b610c9a8161129f565b610cd9576040517f08c379a0000000000000000000000000000000000000000000000000000000008152600401610cd090611cd4565b60405180910390fd5b50565b600033905090565b816004600083815260200190815260200160002060006101000a81548173ffffffffffffffffffffffffffffffffffffffff021916908373ffffffffffffffffffffffffffffffffffffffff160217905550808273ffffffffffffffffffffffffffffffffffffffff16610d5783610676565b73ffffffffffffffffffffffffffffffffffffffff167f8c5be1e5ebec7d5bd14f71427d1e84f3dd0314c0f7b2291e5b200ac8c7c3b92560405160405180910390a45050565b600080610da983610676565b90508073ffffffffffffffffffffffffffffffffffffffff168473ffffffffffffffffffffffffffffffffffffffff161480610deb5750610dea81856109f7565b5b80610e2957508373ffffffffffffffffffffffffffffffffffffffff16610e1184610492565b73ffffffffffffffffffffffffffffffffffffffff16145b91505092915050565b8273ffffffffffffffffffffffffffffffffffffffff16610e5282610676565b73ffffffffffffffffffffffffffffffffffffffff1614610ea8576040517f08c379a0000000000000000000000000000000000000000000000000000000008152600401610e9f90611c34565b60405180910390fd5b600073ffffffffffffffffffffffffffffffffffffffff168273ffffffffffffffffffffffffffffffffffffffff161415610f18576040517f08c379a0000000000000000000000000000000000000000000000000000000008152600401610f0f90611c54565b60405180910390fd5b610f2383838361130b565b610f2e600082610ce4565b6001600360008573ffffffffffffffffffffffffffffffffffffffff1673ffffffffffffffffffffffffffffffffffffffff1681526020019081526020016000206000828254610f7e9190611ede565b925050819055506001600360008473ffffffffffffffffffffffffffffffffffffffff1673ffffffffffffffffffffffffffffffffffffffff1681526020019081526020016000206000828254610fd59190611dfd565b92505081905550816002600083815260200190815260200160002060006101000a81548173ffffffffffffffffffffffffffffffffffffffff021916908373ffffffffffffffffffffffffffffffffffffffff160217905550808273ffffffffffffffffffffffffffffffffffffffff168473ffffffffffffffffffffffffffffffffffffffff167fddf252ad1be2c89b69c2b068fc378daa952ba7f163c4a11628f55a4df523b3ef60405160405180910390a4611094838383611310565b505050565b8173ffffffffffffffffffffffffffffffffffffffff168373ffffffffffffffffffffffffffffffffffffffff161415611108576040517f08c379a00000000000000000000000000000000000000000000000000000000081526004016110ff90611c74565b60405180910390fd5b80600560008573ffffffffffffffffffffffffffffffffffffffff1673ffffffffffffffffffffffffffffffffffffffff16815260200190815260200160002060008473ffffffffffffffffffffffffffffffffffffffff1673ffffffffffffffffffffffffffffffffffffffff16815260200190815260200160002060006101000a81548160ff0219169083151502179055508173ffffffffffffffffffffffffffffffffffffffff168373ffffffffffffffffffffffffffffffffffffffff167f17307eab39ab6107e8899845ad3d59bd9653f200f220920489ca2b5937696c31836040516111f99190611bd7565b60405180910390a3505050565b611211848484610e32565b61121d84848484611315565b61125c576040517f08c379a000000000000000000000000000000000000000000000000000000000815260040161125390611c14565b60405180910390fd5b50505050565b60606040518060400160405280601d81526020017f646174613a6170706c69636174696f6e2f6a736f6e3b6261736536342c000000815250905090565b60008073ffffffffffffffffffffffffffffffffffffffff166002600084815260200190815260200160002060009054906101000a900473ffffffffffffffffffffffffffffffffffffffff1673ffffffffffffffffffffffffffffffffffffffff1614159050919050565b505050565b505050565b60006113368473ffffffffffffffffffffffffffffffffffffffff16610c04565b1561149f578373ffffffffffffffffffffffffffffffffffffffff1663150b7a0261135f610cdc565b8786866040518563ffffffff1660e01b81526004016113819493929190611b8b565b602060405180830381600087803b15801561139b57600080fd5b505af19250505080156113cc57506040513d601f19601f820116820180604052508101906113c99190611775565b60015b61144f573d80600081146113fc576040519150601f19603f3d011682016040523d82523d6000602084013e611401565b606091505b50600081511415611447576040517f08c379a000000000000000000000000000000000000000000000000000000000815260040161143e90611c14565b60405180910390fd5b805181602001fd5b63150b7a0260e01b7bffffffffffffffffffffffffffffffffffffffffffffffffffffffff1916817bffffffffffffffffffffffffffffffffffffffffffffffffffffffff1916149150506114a4565b600190505b949350505050565b60006114bf6114ba84611d74565b611d4f565b9050828152602081018484840111156114db576114da6120ec565b5b6114e6848285611f86565b509392505050565b6000813590506114fd816124c3565b92915050565b600081359050611512816124da565b92915050565b600081359050611527816124f1565b92915050565b60008151905061153c816124f1565b92915050565b600082601f830112611557576115566120e7565b5b81356115678482602086016114ac565b91505092915050565b60008135905061157f81612508565b92915050565b60006020828403121561159b5761159a6120f6565b5b60006115a9848285016114ee565b91505092915050565b600080604083850312156115c9576115c86120f6565b5b60006115d7858286016114ee565b92505060206115e8858286016114ee565b9150509250929050565b60008060006060848603121561160b5761160a6120f6565b5b6000611619868287016114ee565b935050602061162a868287016114ee565b925050604061163b86828701611570565b9150509250925092565b6000806000806080858703121561165f5761165e6120f6565b5b600061166d878288016114ee565b945050602061167e878288016114ee565b935050604061168f87828801611570565b925050606085013567ffffffffffffffff8111156116b0576116af6120f1565b5b6116bc87828801611542565b91505092959194509250565b600080604083850312156116df576116de6120f6565b5b60006116ed858286016114ee565b92505060206116fe85828601611503565b9150509250929050565b6000806040838503121561171f5761171e6120f6565b5b600061172d858286016114ee565b925050602061173e85828601611570565b9150509250929050565b60006020828403121561175e5761175d6120f6565b5b600061176c84828501611518565b91505092915050565b60006020828403121561178b5761178a6120f6565b5b60006117998482850161152d565b91505092915050565b6000602082840312156117b8576117b76120f6565b5b60006117c684828501611570565b91505092915050565b6117d881611f12565b82525050565b6117e781611f24565b82525050565b60006117f882611dba565b6118028185611dd0565b9350611812818560208601611f95565b61181b816120fb565b840191505092915050565b600061183182611dc5565b61183b8185611de1565b935061184b818560208601611f95565b611854816120fb565b840191505092915050565b600061186a82611dc5565b6118748185611df2565b9350611884818560208601611f95565b80840191505092915050565b6000815461189d81611fc8565b6118a78186611df2565b945060018216600081146118c257600181146118d357611906565b60ff19831686528186019350611906565b6118dc85611da5565b60005b838110156118fe578154818901526001820191506020810190506118df565b838801955050505b50505092915050565b600061191c600983611df2565b91506119278261210c565b600982019050919050565b600061193f603283611de1565b915061194a82612135565b604082019050919050565b6000611962602583611de1565b915061196d82612184565b604082019050919050565b6000611985602483611de1565b9150611990826121d3565b604082019050919050565b60006119a8601983611de1565b91506119b382612222565b602082019050919050565b60006119cb602983611de1565b91506119d68261224b565b604082019050919050565b60006119ee600283611df2565b91506119f98261229a565b600282019050919050565b6000611a11603e83611de1565b9150611a1c826122c3565b604082019050919050565b6000611a34604983611df2565b9150611a3f82612312565b604982019050919050565b6000611a57601883611de1565b9150611a6282612387565b602082019050919050565b6000611a7a602183611de1565b9150611a85826123b0565b604082019050919050565b6000611a9d602e83611de1565b9150611aa8826123ff565b604082019050919050565b6000611ac0604383611df2565b9150611acb8261244e565b604382019050919050565b611adf81611f7c565b82525050565b6000611af1828461185f565b915081905092915050565b6000611b08828561185f565b9150611b14828461185f565b91508190509392505050565b6000611b2b8261190f565b9150611b37828561185f565b9150611b4282611a27565b9150611b4d82611ab3565b9150611b598284611890565b9150611b64826119e1565b91508190509392505050565b6000602082019050611b8560008301846117cf565b92915050565b6000608082019050611ba060008301876117cf565b611bad60208301866117cf565b611bba6040830185611ad6565b8181036060830152611bcc81846117ed565b905095945050505050565b6000602082019050611bec60008301846117de565b92915050565b60006020820190508181036000830152611c0c8184611826565b905092915050565b60006020820190508181036000830152611c2d81611932565b9050919050565b60006020820190508181036000830152611c4d81611955565b9050919050565b60006020820190508181036000830152611c6d81611978565b9050919050565b60006020820190508181036000830152611c8d8161199b565b9050919050565b60006020820190508181036000830152611cad816119be565b9050919050565b60006020820190508181036000830152611ccd81611a04565b9050919050565b60006020820190508181036000830152611ced81611a4a565b9050919050565b60006020820190508181036000830152611d0d81611a6d565b9050919050565b60006020820190508181036000830152611d2d81611a90565b9050919050565b6000602082019050611d496000830184611ad6565b92915050565b6000611d59611d6a565b9050611d658282611ffa565b919050565b6000604051905090565b600067ffffffffffffffff821115611d8f57611d8e6120b8565b5b611d98826120fb565b9050602081019050919050565b60008190508160005260206000209050919050565b600081519050919050565b600081519050919050565b600082825260208201905092915050565b600082825260208201905092915050565b600081905092915050565b6000611e0882611f7c565b9150611e1383611f7c565b9250827fffffffffffffffffffffffffffffffffffffffffffffffffffffffffffffffff03821115611e4857611e4761202b565b5b828201905092915050565b6000611e5e82611f7c565b9150611e6983611f7c565b925082611e7957611e7861205a565b5b828204905092915050565b6000611e8f82611f7c565b9150611e9a83611f7c565b9250817fffffffffffffffffffffffffffffffffffffffffffffffffffffffffffffffff0483118215151615611ed357611ed261202b565b5b828202905092915050565b6000611ee982611f7c565b9150611ef483611f7c565b925082821015611f0757611f0661202b565b5b828203905092915050565b6000611f1d82611f5c565b9050919050565b60008115159050919050565b60007fffffffff0000000000000000000000000000000000000000000000000000000082169050919050565b600073ffffffffffffffffffffffffffffffffffffffff82169050919050565b6000819050919050565b82818337600083830152505050565b60005b83811015611fb3578082015181840152602081019050611f98565b83811115611fc2576000848401525b50505050565b60006002820490506001821680611fe057607f821691505b60208210811415611ff457611ff3612089565b5b50919050565b612003826120fb565b810181811067ffffffffffffffff82111715612022576120216120b8565b5b80604052505050565b7f4e487b7100000000000000000000000000000000000000000000000000000000600052601160045260246000fd5b7f4e487b7100000000000000000000000000000000000000000000000000000000600052601260045260246000fd5b7f4e487b7100000000000000000000000000000000000000000000000000000000600052602260045260246000fd5b7f4e487b7100000000000000000000000000000000000000000000000000000000600052604160045260246000fd5b600080fd5b600080fd5b600080fd5b600080fd5b6000601f19601f8301169050919050565b7f7b226e616d65223a220000000000000000000000000000000000000000000000600082015250565b7f4552433732313a207472616e7366657220746f206e6f6e20455243373231526560008201527f63656976657220696d706c656d656e7465720000000000000000000000000000602082015250565b7f4552433732313a207472616e736665722066726f6d20696e636f72726563742060008201527f6f776e6572000000000000000000000000000000000000000000000000000000602082015250565b7f4552433732313a207472616e7366657220746f20746865207a65726f2061646460008201527f7265737300000000000000000000000000000000000000000000000000000000602082015250565b7f4552433732313a20617070726f766520746f2063616c6c657200000000000000600082015250565b7f4552433732313a2061646472657373207a65726f206973206e6f74206120766160008201527f6c6964206f776e65720000000000000000000000000000000000000000000000602082015250565b7f227d000000000000000000000000000000000000000000000000000000000000600082015250565b7f4552433732313a20617070726f76652063616c6c6572206973206e6f7420746f60008201527f6b656e206f776e6572206e6f7220617070726f76656420666f7220616c6c0000602082015250565b7f222c20226465736372697074696f6e223a22416e204e4654207468617420686160008201527f73206120746f6b656e55524920666f72206120756e73746f707061626c65207760208201527f656273697465222c200000000000000000000000000000000000000000000000604082015250565b7f4552433732313a20696e76616c696420746f6b656e2049440000000000000000600082015250565b7f4552433732313a20617070726f76616c20746f2063757272656e74206f776e6560008201527f7200000000000000000000000000000000000000000000000000000000000000602082015250565b7f4552433732313a2063616c6c6572206973206e6f7420746f6b656e206f776e6560008201527f72206e6f7220617070726f766564000000000000000000000000000000000000602082015250565b7f2261747472696275746573223a205b7b2274726169745f74797065223a20226360008201527f6f6f6c6e657373222c202276616c7565223a203130307d5d2c2022696d61676560208201527f223a220000000000000000000000000000000000000000000000000000000000604082015250565b6124cc81611f12565b81146124d757600080fd5b50565b6124e381611f24565b81146124ee57600080fd5b50565b6124fa81611f30565b811461250557600080fd5b50565b61251181611f7c565b811461251c57600080fd5b5056fe4142434445464748494a4b4c4d4e4f505152535455565758595a6162636465666768696a6b6c6d6e6f707172737475767778797a303132333435363738392b2f3c73766720786d6c6e733d22687474703a2f2f7777772e77332e6f72672f323030302f7376672220786d6c6e733a786c696e6b3d22687474703a2f2f7777772e77332e6f72672f313939392f786c696e6b222077696474683d2235303022206865696768743d22353030223e3c726563742077696474683d223130302522206865696768743d2231303025222066696c6c3d22626c61636b22202f3e3c7465787420783d22302220793d223135222066696c6c3d227768697465223e4920616d2062757420612068756d626c652066726f6720f09f90b83c2f746578743e3c2f7376673ea26469706673582212201de37959a84df44b1cea9de2256f5351af8d4aa0e9d2da97fd211151321b19c564736f6c634300080700334142434445464748494a4b4c4d4e4f505152535455565758595a6162636465666768696a6b6c6d6e6f707172737475767778797a303132333435363738392b2f3c73766720786d6c6e733d22687474703a2f2f7777772e77332e6f72672f323030302f7376672220786d6c6e733a786c696e6b3d22687474703a2f2f7777772e77332e6f72672f313939392f786c696e6b222077696474683d2235303022206865696768743d22353030223e3c726563742077696474683d223130302522206865696768743d2231303025222066696c6c3d22626c61636b22202f3e3c7465787420783d22302220793d223135222066696c6c3d227768697465223e4920616d2062757420612068756d626c652066726f6720f09f90b83c2f746578743e3c2f7376673e",
  "devdoc": {
    "kind": "dev",
    "methods": {
      "approve(address,uint256)": {
        "details": "See {IERC721-approve}."
      },
      "balanceOf(address)": {
        "details": "See {IERC721-balanceOf}."
      },
      "getApproved(uint256)": {
        "details": "See {IERC721-getApproved}."
      },
      "isApprovedForAll(address,address)": {
        "details": "See {IERC721-isApprovedForAll}."
      },
      "name()": {
        "details": "See {IERC721Metadata-name}."
      },
      "ownerOf(uint256)": {
        "details": "See {IERC721-ownerOf}."
      },
      "safeTransferFrom(address,address,uint256)": {
        "details": "See {IERC721-safeTransferFrom}."
      },
      "safeTransferFrom(address,address,uint256,bytes)": {
        "details": "See {IERC721-safeTransferFrom}."
      },
      "setApprovalForAll(address,bool)": {
        "details": "See {IERC721-setApprovalForAll}."
      },
      "supportsInterface(bytes4)": {
        "details": "See {IERC165-supportsInterface}."
      },
      "symbol()": {
        "details": "See {IERC721Metadata-symbol}."
      },
      "transferFrom(address,address,uint256)": {
        "details": "See {IERC721-transferFrom}."
      }
    },
    "version": 1
  },
  "userdoc": {
    "kind": "user",
    "methods": {},
    "version": 1
  },
  "storageLayout": {
    "storage": [
      {
        "astId": 25,
        "contract": "contracts/UnstoppableFrog.sol:UnstoppableFrog",
        "label": "_name",
        "offset": 0,
        "slot": "0",
        "type": "t_string_storage"
      },
      {
        "astId": 27,
        "contract": "contracts/UnstoppableFrog.sol:UnstoppableFrog",
        "label": "_symbol",
        "offset": 0,
        "slot": "1",
        "type": "t_string_storage"
      },
      {
        "astId": 31,
        "contract": "contracts/UnstoppableFrog.sol:UnstoppableFrog",
        "label": "_owners",
        "offset": 0,
        "slot": "2",
        "type": "t_mapping(t_uint256,t_address)"
      },
      {
        "astId": 35,
        "contract": "contracts/UnstoppableFrog.sol:UnstoppableFrog",
        "label": "_balances",
        "offset": 0,
        "slot": "3",
        "type": "t_mapping(t_address,t_uint256)"
      },
      {
        "astId": 39,
        "contract": "contracts/UnstoppableFrog.sol:UnstoppableFrog",
        "label": "_tokenApprovals",
        "offset": 0,
        "slot": "4",
        "type": "t_mapping(t_uint256,t_address)"
      },
      {
        "astId": 45,
        "contract": "contracts/UnstoppableFrog.sol:UnstoppableFrog",
        "label": "_operatorApprovals",
        "offset": 0,
        "slot": "5",
        "type": "t_mapping(t_address,t_mapping(t_address,t_bool))"
      },
      {
        "astId": 1729,
        "contract": "contracts/UnstoppableFrog.sol:UnstoppableFrog",
        "label": "s_imageURI",
        "offset": 0,
        "slot": "6",
        "type": "t_string_storage"
      },
      {
        "astId": 1731,
        "contract": "contracts/UnstoppableFrog.sol:UnstoppableFrog",
        "label": "s_tokenCounter",
        "offset": 0,
        "slot": "7",
        "type": "t_uint256"
      }
    ],
    "types": {
      "t_address": {
        "encoding": "inplace",
        "label": "address",
        "numberOfBytes": "20"
      },
      "t_bool": {
        "encoding": "inplace",
        "label": "bool",
        "numberOfBytes": "1"
      },
      "t_mapping(t_address,t_bool)": {
        "encoding": "mapping",
        "key": "t_address",
        "label": "mapping(address => bool)",
        "numberOfBytes": "32",
        "value": "t_bool"
      },
      "t_mapping(t_address,t_mapping(t_address,t_bool))": {
        "encoding": "mapping",
        "key": "t_address",
        "label": "mapping(address => mapping(address => bool))",
        "numberOfBytes": "32",
        "value": "t_mapping(t_address,t_bool)"
      },
      "t_mapping(t_address,t_uint256)": {
        "encoding": "mapping",
        "key": "t_address",
        "label": "mapping(address => uint256)",
        "numberOfBytes": "32",
        "value": "t_uint256"
      },
      "t_mapping(t_uint256,t_address)": {
        "encoding": "mapping",
        "key": "t_uint256",
        "label": "mapping(uint256 => address)",
        "numberOfBytes": "32",
        "value": "t_address"
      },
      "t_string_storage": {
        "encoding": "bytes",
        "label": "string",
        "numberOfBytes": "32"
      },
      "t_uint256": {
        "encoding": "inplace",
        "label": "uint256",
        "numberOfBytes": "32"
      }
    }
  }
}